:10000000DCC1EEC1EDC1ECC1EBC1EAC1E9C1E8C19F
:10001000E7C1E6C1E5C1E4C1E3C1E2C1E1C1E0C1BC
:10002000DFC1DEC1DDC1000002FFFFFFB84F2000CD
:100030000002B84F20000002B84F20000002726496
:1000400010726408000002074508000002B84F2043
:100050000000027264107264080000020745080084
:100060000002B84F4000000235352000000235354F
:1000700020000002353520000002383210383208E6
:1000800000000207450800000276542000000272BA
:100090006410726408000002074508000002B84FAF
:1000A00040000002DC2720000002B84F10B84F08C3
:1000B000000002B84F08000002DC27200000023BCD
:1000C0002A103B2A08000002BE2C08000002672FFD
:1000D00008000002383208000002672F10000010EC
:1000E0007C4B100000025F3820000002B93B10B9C1
:1000F0003B08000002423F080000020745080000DC
:100100000206470800000207451000001072641044
:10011000000002765420000002726410726408002D
:100120000002064710000002B84F2000000272646F
:1001300010726408000002064710000002B84F4029
:10014000000020FFFFFF726408CE5E2000002076D2
:100150005408B84F20000020726408CE5E10765418
:1001600008B84F10B93B08423F10CE5E08B84F1098
:10017000423F08254120000010094308064708CEE9
:100180005E08B26908CE5E08CE5E20000020FFFF48
:10019000FF000002672F08383208672F083832083E
:1001A000672F08423F08353508B93B08064710005D
:1001B0000010707708CE5E08064708423F10000026
:1001C00008CE5E087C4B08423F08B93B100000088F
:1001D000CE5E08672F08383208672F083832086764
:1001E0002F08423F08353508B93B08064710000084
:1001F00010707708CE5E08064708423F10000008DE
:10020000CE5E08B93B08423F08064720FFFFFF6764
:100210002F08DC2720000020DC2708672F200000A3
:1002200020832308DC2708832308DC27088323088E
:10023000DC2708832308DC2708832308A31F10007A
:100240000020672F08DC2710000020DC2708672F1C
:1002500010000020832308DC2708832308DC2708FC
:10026000832308DC2708832308DC2708832308A3CB
:100270001F10000020FFFFFF000002672F08BE2CA8
:1002800008672F08383208672F08000002B93B10B2
:10029000000020672F08BE2C08672F083832086737
:1002A0002F08000002423F10000020672F08DD1DCC
:1002B00008A31F08832308672F08DC270800000411
:1002C000BE2C04672F08BE2C08672F04BE2C0467C1
:1002D0002F04353520000020FFFFFFBE2C205F38A3
:1002E00020B93B20074510074508B84F107C4B103C
:1002F000B93B10B84F10B93B107B5910000010B932
:100300003B10B93B085F3808B93B207C4B107C4B55
:1003100008B84F087B5920CE5E107B5910B84F208B
:10032000B84F10CE5E10707710000010B93B10B9B6
:100330003B085F3808B93B20726410726408B84FFC
:1003400008B93B10000010B84F10B84F087C4B1094
:100350007B59207B59100000027B59107B5908CE35
:100360005E08B84F207B5910BE70107B8120BE7094
:10037000107B5910707720707710D4841038922039
:10038000000004707710707708BE700870771070E6
:100390007708000008726410726408B84F08B93B0F
:1003A00010B93B08000008B84F10B84F087C4B0844
:1003B0007B5940000040FFFFFF0011241FBECFE526
:1003C000D4E0DEBFCDBF11E0A0E6B0E0E6E6F1E1AB
:1003D00002C005900D92A437B107D9F702D0C1C66B
:1003E0000FCE2F923F924F925F926F927F928F9299
:1003F0009F92AF92BF92CF92DF92EF92FF920F93B4
:100400001F93DF93CF9300D00F92CDB7DEB7B99A89
:10041000949A1BBC1ABC80E48FBD89E08EBD3090DD
:10042000600020906100232D322DC9014C011B82F8
:100430001A82552419823FE0432E28EC622E712C3B
:100440004A815B81440F551F8A819B81480F591F48
:10045000480D591DFA01259134914E5F5F4FFA0105
:100460008491FFEF2F3F3F0709F458C04A815B8119
:100470004F5F5F4F5B834A833BBD2ABD849DB001C4
:100480001124882777FD8095982F94D35B016C0108
:1004900020E030E04AEF54E417D27B018C0120E0E9
:1004A00030E040E85FE35BD388230CF43DC0C80133
:1004B000B70120E03FEF4FE757E4FBD218163CF5B9
:1004C000C601B50120E030E040E251E4FDD138D072
:1004D000CB01672B29F0F3013197F1F70197D9F799
:1004E000849B02C051E059838499AACF89818130CD
:1004F00009F0A6CF539495E09515C8F4832D922D5D
:100500009C01490155241B821A82198299CFC80186
:10051000B70116D0CB010197F1F7E2CF8F3F09F079
:10052000A5CF1B821A828CCF61E070E0F3CFE52D5E
:10053000F0E0EE0FFF1FE05AFF4F80809180E3CF85
:10054000EF92FF920F931F937B018C0120E030E02C
:1005500040E05FE4D9D288237CF0C801B70120E0F5
:1005600030E040E05FE45ED17FD39B01AC012050DE
:1005700030404040504805C0C801B70175D39B01C9
:10058000AC01B901CA011F910F91FF90EF9008953E
:10059000A0E0B0E0EDECF2E0ADC5DC012B01FA012A
:1005A0009C91923008F439C1EB018881823008F4C3
:1005B00033C1943069F4843009F02FC111969C91B5
:1005C00011978981981709F428C1ACE6B0E025C1DC
:1005D000843009F421C18230A9F4923009F01DC1A0
:1005E0009A01AD0188E0EA010990AE01E9010992A2
:1005F0009E018150C1F7E201898111969C91892366
:10060000818308C1923009F407C112962D903C9065
:100610001397EB018A819B811496AD90BD90CD908C
:10062000DC901797EC80FD800E811F819101281BC3
:10063000390BB90137FF04C066277727621B730B9C
:10064000603271050CF061C0121613066CF53701AB
:100650004801062E04C096948794779467940A9470
:10066000D2F721E030E040E050E004C0220F331F19
:10067000441F551F6A95D2F72150304040405040EA
:100680002E213F21402351232115310541055105DC
:1006900021F021E030E040E050E079018A01E628D5
:1006A000F728082919293CC0232BD1F1260E371E23
:1006B00035014601062E04C096948794779467947A
:1006C0000A94D2F721E030E040E050E004C0220F6D
:1006D000331F441F551F6A95D2F7215030404040C8
:1006E00050402A213B214C215D2121153105410536
:1006F000510521F021E030E040E050E059016A016D
:10070000A628B728C828D9280BC0821593052CF035
:100710001C01AA24BB24650103C0EE24FF24870129
:1007200011969C91D20111968C91981709F445C0AD
:10073000992339F0A80197012A193B094C095D0951
:1007400006C0A60195012E193F09400B510B57FD1C
:1007500008C01182338222822483358346835783E3
:100760001DC081E081833382228288279927DC01A2
:10077000821B930BA40BB50B84839583A683B7834D
:100780000DC0220F331F441F551F2483358346831A
:10079000578382819381019793838283248135815A
:1007A00046815781DA01C9010197A109B1098F5F1B
:1007B0009F4FAF4FBF4328F30BC0918333822282F8
:1007C000EA0CFB1C0C1D1D1DE482F58206831783B9
:1007D00083E08083248135814681578157FF1AC089
:1007E000C901AA2797FDA095BA2F81709070A070BB
:1007F000B0705695479537952795822B932BA42B50
:10080000B52B84839583A683B783828193810196D8
:1008100093838283DF0101C0D201CD01CDB7DEB762
:10082000E2E184C4A0E2B0E0E7E1F4E06FC46983F0
:100830007A838B839C832D833E834F835887E9E0A3
:10084000EE2EF12CEC0EFD1ECE010196B70181D3E8
:100850008E010F5E1F4FCE010596B8017AD38A89AB
:1008600091E089278A8BC701B801AE01475E5F4FCF
:100870008FDE9AD2A096E6E065C4A0E2B0E0E2E4A2
:10088000F4E044C469837A838B839C832D833E8305
:100890004F835887F9E0EF2EF12CEC0EFD1ECE01B0
:1008A0000196B70156D38E010F5E1F4FCE010596FC
:1008B000B8014FD3C701B801AE01475E5F4F68DE94
:1008C00073D2A096E6E03EC4A0E2B0E0E9E6F4E030
:1008D00011C469837A838B839C832D833E834F83EA
:1008E0005887CE010196BE01675F7F4F32D3CE019C
:1008F0000596BE016F5E7F4F2CD39985923088F0AC
:1009000089898230C8F0943019F4823051F404C0DF
:10091000843029F4923081F48CE690E0C6C09230A5
:1009200049F420E09A858A89981321E02A87CE012C
:100930000996BBC0823049F420E09A858A899813D1
:1009400021E02A8BCE014196B0C02D843E844F8495
:1009500058886D887E888F88988CEE24FF248701C4
:10096000AA24BB24650140E050E060E070E0E0E0D4
:10097000F0E0C10181709070892BE9F0E60CF71C62
:10098000081D191D9A01AB012A0D3B1D4C1D5D1D53
:1009900080E090E0A0E0B0E0E614F7040805190557
:1009A00020F481E090E0A0E0B0E0BA01A901480F96
:1009B000591F6A1F7B1FAA0CBB1CCC1CDD1C97FE99
:1009C00008C081E090E0A0E0B0E0A82AB92ACA2AD5
:1009D000DB2A3196E032F10549F0660C771C881C61
:1009E000991C5694479437942794C3CFFA85EA8983
:1009F0002B893C898B859C85280F391F2E5F3F4FA3
:100A000017C0CA0181709070892B61F01695079507
:100A1000F794E79480E090E0A0E0B0E8E82AF92AB3
:100A20000A2B1B2B76956795579547952F5F3F4F60
:100A300077FDE7CF0CC0440F551F661F771F17FDCA
:100A40004160EE0CFF1C001F111F21503040403050
:100A500090E0590790E0690790E4790760F32B8FE5
:100A60003C8FDB01CA018F779070A070B07080342A
:100A70009105A105B10561F447FD0AC0E114F10437
:100A80000105110529F0405C5F4F6F4F7F4F4078A3
:100A90001A8EFE1711F081E08A8F4D8F5E8F6F8F57
:100AA00078A383E0898FCE0149967ED1A096E2E1BA
:100AB0003DC3A8E1B0E0EEE5F5E028C369837A83A1
:100AC0008B839C832D833E834F83588789E0E82E58
:100AD000F12CEC0EFD1ECE010196B7013AD28E012B
:100AE0000F5E1F4FCE010596B80133D28985823043
:100AF00038F08989823020F0C701B801A2D201C044
:100B00008FEF6896E6E01EC3A8E1B0E0E9E8F5E003
:100B1000FDC269837A838B839C832D833E834F83BD
:100B2000588789E0E82EF12CEC0EFD1ECE010196CF
:100B3000B7010FD28E010F5E1F4FCE010596B8018F
:100B400008D28985823038F08989823020F0C70147
:100B5000B80177D201C08FEF6896E6E0F3C2A8E152
:100B6000B0E0E4EBF5E0D2C269837A838B839C83A7
:100B70002D833E834F83588789E0E82EF12CEC0EBD
:100B8000FD1ECE010196B701E4D18E010F5E1F4F0D
:100B9000CE010596B801DDD18985823038F089898A
:100BA000823020F0C701B8014CD201C081E06896C4
:100BB000E6E0C8C2A8E0B0E0EFEDF5E0A4C29B011A
:100BC000AC0183E08983DA01C9018827B7FD8395E9
:100BD0009927AA27BB27B82E2115310541055105B4
:100BE00019F482E0898339C08823A9F0203080E09D
:100BF000380780E0480780E8580729F460E070E093
:100C000080E09FEC2EC0EE24FF248701E21AF30A55
:100C1000040B150B02C079018A018EE1C82ED12C7C
:100C2000DC82CB82ED82FE820F831887C801B70178
:100C30006CD001971816190684F4082E04C0EE0C27
:100C4000FF1C001F111F0A94D2F7ED82FE820F8352
:100C50001887C81AD90ADC82CB82BA82CE010196E3
:100C6000A3D02896E9E06BC2ACE0B0E0E9E3F6E09F
:100C700051C269837A838B839C83CE010196BE0126
:100C80006B5F7F4F66D18D81823061F1823050F190
:100C9000843021F48E81882351F12EC02F81388534
:100CA00037FD20C06E812F3131051CF06623F9F02D
:100CB00023C08EE190E0821B930B29853A854B85FA
:100CC0005C8504C056954795379527958A95D2F748
:100CD0006623B1F050954095309521953F4F4F4F89
:100CE0005F4F0EC020E030E040E050E009C02FEF41
:100CF0003FEF4FEF5FE704C020E030E040E050E816
:100D0000B901CA012C96E2E021C2EF92FF920F9343
:100D10001F937B018C0180E0E81680E0F80681E0FB
:100D2000080780E0180788F48FEFE816F104010542
:100D3000110531F028F088E090E0A0E0B0E017C0A5
:100D400080E090E0A0E0B0E012C080E0E81680E033
:100D5000F80680E0080781E0180728F088E190E0B5
:100D6000A0E0B0E004C080E190E0A0E0B0E020E2CC
:100D700030E040E050E0281B390B4A0B5B0B04C00D
:100D800016950795F794E7948A95D2F7F701EC58F2
:100D9000FF4F8081281B310941095109C9011F9169
:100DA0000F91FF90EF900895DF92EF92FF920F93D3
:100DB0001F93FC01E480F58006811781D18080813A
:100DC000823048F480E090E0A0E1B0E0E82AF92A1F
:100DD0000A2B1B2BA5C0843009F49FC0823021F45C
:100DE000EE24FF24870105C0E114F104010511057B
:100DF00019F4E0E0F0E096C0628173819FEF623801
:100E000079070CF05BC022E83FEF261B370B2A3135
:100E100031052CF020E030E040E050E02AC0B8017D
:100E2000A701022E04C076956795579547950A94B9
:100E3000D2F781E090E0A0E0B0E004C0880F991FF5
:100E4000AA1FBB1F2A95D2F70197A109B1098E21CC
:100E50009F21A023B1230097A105B10521F081E0D6
:100E600090E0A0E0B0E09A01AB01282B392B4A2B8F
:100E70005B2BDA01C9018F779070A070B07080345D
:100E80009105A105B10539F427FF09C0205C3F4F4A
:100E90004F4F5F4F04C0215C3F4F4F4F5F4FE0E02B
:100EA000F0E02030A0E03A07A0E04A07A0E45A07AB
:100EB00010F0E1E0F0E079018A0127C060387105A7
:100EC00064F5FB01E158FF4FD801C7018F7790709F
:100ED000A070B07080349105A105B10539F4E7FE2A
:100EE0000DC080E490E0A0E0B0E004C08FE390E0AB
:100EF000A0E0B0E0E80EF91E0A1F1B1F17FF05C097
:100F000016950795F794E794319687E0169507951F
:100F1000F794E7948A95D1F705C0EE24FF24870162
:100F2000EFEFF0E06E2F679566276795902F9F771C
:100F3000D794DD24D7948E2F8695492F462B582F92
:100F40005D29B701CA011F910F91FF90EF90DF90CB
:100F50000895FC01DB01408151812281622F6F776E
:100F600070E0221F2227221F9381892F880F822B56
:100F7000282F30E0991F9927991F11969C9311975C
:100F800021153105A9F5411551056105710511F4CA
:100F900082E037C082E89FEF13969C938E9312975E
:100FA0009A01AB0167E0220F331F441F551F6A955A
:100FB000D1F783E08C930DC0220F331F441F551FC0
:100FC00012968D919C911397019713969C938E93F3
:100FD0001297203080E0380780E0480780E4580707
:100FE00058F314962D933D934D935C931797089562
:100FF0002F3F310579F4411551056105710519F44B
:1010000084E08C93089564FF03C081E08C9312C048
:101010001C9210C02F57304013963C932E9312977A
:1010200083E08C9387E0440F551F661F771F8A95D6
:10103000D1F7706414964D935D936D937C931797DD
:1010400008951F93DC01FB019C91923008F447C086
:101050008081823008F443C0943051F411961C9181
:10106000843099F58181682F70E0611B71093FC060
:10107000843021F0923031F48230B9F181818823BB
:1010800089F12DC011961C9111978230F1F0818168
:101090001817D9F412962D913C9113978281938160
:1010A0008217930794F028173907BCF014968D9196
:1010B0009D910D90BC91A02D248135814681578151
:1010C000281739074A075B0718F4112341F00AC0B3
:1010D00082179307A407B50740F4112319F061E0C4
:1010E00070E005C06FEF7FEF02C060E070E0CB0101
:1010F0001F9108952F923F924F925F926F927F922D
:101100008F929F92AF92BF92CF92DF92EF92FF9217
:101110000F931F93CF93DF93CDB7DEB7CA1BDB0BC3
:101120000FB6F894DEBF0FBECDBF09942A88398868
:1011300048885F846E847D848C849B84AA84B9846F
:10114000C884DF80EE80FD800C811B81AA81B9817B
:10115000CE0FD11D0FB6F894DEBF0FBECDBFED018F
:061160000895F894FFCF92
:1011660026002C000F0278029101460100000000C3
:101176000000000000010202030303030404040448
:10118600040404040505050505050505050505050D
:1011960005050505060606060606060606060606ED
:1011A60006060606060606060606060606060606D9
:1011B60006060606070707070707070707070707BD
:1011C60007070707070707070707070707070707A9
:1011D6000707070707070707070707070707070799
:1011E6000707070707070707070707070707070789
:1011F600070707070808080808080808080808086D
:101206000808080808080808080808080808080858
:101216000808080808080808080808080808080848
:101226000808080808080808080808080808080838
:101236000808080808080808080808080808080828
:101246000808080808080808080808080808080818
:101256000808080808080808080808080808080808
:1012660008080808080808080808080808080808F8
:041276000808080854
:00000001FF
