:1000000012C02CC02BC02AC029C028C027C026C0BF
:1000100025C024C023C022C021C020C01FC01EC0D4
:100020001DC01CC01BC011241FBECFE5D4E0DEBF25
:10003000CDBF10E0A0E6B0E0E0E0F7E002C0059040
:100040000D92AE39B107D9F711E0AEE9B0E001C0C9
:100050001D92A832B107E1F780D150C3D1CF909A59
:1000600080912601909127019093A5008093A40090
:1000700081E08093A1001092A600089520912601AE
:10008000309127018091A4009091A500A901481BFF
:10009000590BCA0180529340F8F03093A500209389
:1000A000A4008091A100882349F0809915C0109286
:1000B000A1003093A3002093A2000895809B0DC05F
:1000C0008091A800882319F481E08093A600109203
:1000D000A80081E08093A10008958091A800882362
:1000E000D9F78091A2009091A300281B390B205EC4
:1000F0003E4290F381E08093A7008093A80008958A
:10010000A2E8B0E0ED91FC911197829112969C913A
:100110001297892B8083139680E0AD39B80791F749
:1001200008959B01AC01E9EAF0E061E004C0569556
:10013000479537952795C90181709070892B09F0F3
:1001400060833B9681E0EC30F80789F70895A2E8D8
:10015000B0E0ED91FC911197908112968C911297DD
:10016000809589238083139680E0AD39B80789F79D
:100170000895A2E8B0E0ED91FC911197808112966C
:100180009C911297892B8083139680E0AD39B80734
:1001900091F708951F93182FDADF1123E1F0113042
:1001A000E1F0123001F1133009F11430C9F01530CB
:1001B000F9F0163001F1A2E8B0E0ED91FC91119751
:1001C000808112969C911297892B8083139680E0F0
:1001D000AD39B80791F71F910895919A1F9108952D
:1001E000C69AC79AF8CF929A1F910895939AF3CF1F
:1001F000959A969AF0CFAC9AAD9AEDCF0F931F9344
:10020000CF93DF93C9EAD0E002E810E0CE01B80155
:10021000EBD02B960D5F1F4F81E0CC30D807B1F7A4
:10022000DF91CF911F910F910895CF93DF93C9EA8A
:10023000D0E0CE01D6D02B9681E0CC30D807C9F7DC
:10024000DF91CF91089510920C01089580910C01D7
:10025000813009F44FC08130A0F520912601309102
:10026000270180919E0090919F00A901481B590B86
:10027000CA01805A9F4000F130939F0020939E0056
:100280009091A0009F5F9093A000E0918000F0917A
:1002900081008081981718F01092A00090E0892FBB
:1002A00090E0880F991F880F991FE80FF91F61814F
:1002B00072818381948135DF8091A700882391F535
:1002C00008958230E9F780912601909127012091CD
:1002D0000F0130911001821B930B8056994080F3DF
:1002E000CCD180930D0110920E0154DF81E08093F8
:1002F0000C0108958091A600882301F58091A70044
:100300008823F1F21092A7001092A000E0918000E3
:10031000F0918100618172818381948102DF10926A
:100320000C0108951092A70010920E0110920D0179
:1003300080E030DF81E080930C0108951092A600E8
:1003400006DF809126019091270190931001809300
:100350000F0182E080930C01D1CFCF92DF92EF9218
:10036000FF920F931F93CF93DF93CADEA1D15DDF7E
:1003700010920C0174DEF9D0E0918000F0918100C0
:100380006181728183819481CCDEE0902601F090BE
:100390002701670197D1882329F080910C018823D8
:1003A000B1F06CDE0091260110912701C8018E1971
:1003B0009F09089780F4E8018701CE018C199D09F7
:1003C0008052934030F042DF78016E01E3CF16DFB8
:1003D000E8CFE601F9CFF8D0C0912601D0912701EE
:1003E000ECCFFC0111820895CF93DF93DC01EB0188
:1003F0008C918823D9F01C9213961C921E9212970E
:1004000081E090E015969C938E93149784E690E09B
:1004100017969C938E93169781E011968C93119763
:10042000E881F98180819A81892B808311968C9152
:100430001197813031F0823009F442C0DF91CF91C1
:10044000089512962D913C9113972F5F3F4F13966D
:100450003C932E93129714968D919C911597281783
:10046000390709F476C016968D919C911797281735
:10047000390720F313961C921E921297E881F98196
:1004800080819A81892B808314968D919C911597F8
:10049000019615969C938E93149716962D913C91E8
:1004A000179714968D919C9115978217930730F2A8
:1004B00015963C932E93149782E011968C93BECFA1
:1004C00012962D913C9113972F5F3F4F13963C93BB
:1004D0002E93129714968D919C9115972817390792
:1004E00061F116968D919C9117972817390708F49A
:1004F000A5CF13961C921E921297E881F9818081F4
:100500009A81892B808314968D919C9115970197E0
:1005100015969C938E93149714968D919C91159794
:10052000029708F08BCFE881F98190818A818095CC
:100530008923808311961C9281CFE881F981908173
:100540008A8180958923808312962D913C911397FF
:10055000C8CFE881F98190818A8180958923808341
:1005600012962D913C9113977ECF8EEC87B981EA3C
:1005700086B9369A10921D0110921F0110921E0129
:100580001092250110922001109221011092220157
:1005900010922301109224010895282F90911D019B
:1005A000983088F480911F01E82FF0E0EB5EFE4F59
:1005B00020838F5F80931F01883010F010921F01FD
:1005C0009F5F90931D010895349B4AC084B190E0D1
:1005D000909313018093120145B120911201309143
:1005E0001301942F80E0822B932B9093130180931F
:1005F0001201349A809112019091130180FF08C07A
:10060000E0912301F0E0EB5EFE4F84858F5F8487ED
:10061000809120018F5F80932001843008F1109237
:100620002001809123018F5F809323018230C0F0ED
:10063000109223019091210180912201981728F0B6
:10064000809125018F5F80932501109221011092E6
:100650002201809124018F5F809324018E3108F460
:100660000895109224018091250166E03BD0892FE6
:100670008F5F93DF10922501089590911D019923BA
:10068000A1F080911E01E82FF0E0EB5EFE4FE081CB
:100690008F5F80931E01883028F4915090931D0144
:1006A0008E2F089510921E01F8CFE0E08E2F08954E
:1006B000109227011092260112BE81E088BF85E0CA
:1006C00083BF089522B780912601281B49F08091AD
:1006D000260190912701019690932701809326018E
:1006E000822F0895991B79E004C0991F961708F08E
:1006F000961B881F7A95C9F780950895F894FFCFC7
:1007000001FFFF000006FFFF0000000000000000E6
:1007100000000000000000000000000000000100D8
:10072000650032000232000432000832002032003C
:0E0730004038004038008035001035002000B1
:00000001FF
