:1000000012C021C08BC11FC01EC01DC044C135C15C
:100010001AC019C018C017C016C015C014C013C02C
:1000200012C011C010C011241FBECFE5D4E0DEBF46
:10003000CDBF10E0A0E6B0E001C01D92A03AB1072C
:10004000E1F729D084C2DCCFDC0114962C911497FF
:10005000FC01E20FF11D308115968D919C91169750
:10006000831B91096083860F911D16969C938E9336
:1000700015972F5F14962C931497243010F0149634
:100080001C920895FC011082118212821382148244
:10009000168215820895BF92CF92DF92EF92FF925F
:1000A0000F931F93DF93CF9300D0CDB7DEB784B308
:1000B0008F7C84BB80E287B987EC86B987B1807F6B
:1000C00087B93A9A10926F0010926000B99A25D2BF
:1000D00069D088E690E0D6DF81E690E0D3DF00913A
:1000E0009E0010919F007894CC24C3947E010894C4
:1000F000E11CF11C52E0D52E43E0B42E18D2349B03
:100100001EC0349A80916F00882371F465B181E636
:1001100090E09ADF87B1807F87B987B1856087B922
:10012000369AC0926F000BC065B188E690E08CDF14
:1001300087B1807F87B93A9A369A10926F00809182
:100140009E0090919F00801B910B803A9105B0F228
:1001500080916000813069F4D98280916D00909126
:100160006E0096958795969587958A831092600084
:100170000CC0B98280916600909167009695879532
:10018000969587958A83C0926000C70173D08823B3
:1001900009F0B4CF00919E0010919F0088B38D2587
:1001A00088BBACCF8B98939ABB9AC3988EE683BDDD
:1001B00015BC88EB9BE099BD88BD1FBC1EBC85B7F4
:1001C000846085BF80E88ABF8BB780688BBF109240
:1001D0009B0010929C0010929D00E6E8F0E01082D7
:1001E000129212923C96108232961082B29710822E
:1001F0000895482F809170008823D1F56830C0F5AC
:1002000081E080937000242F392FC901DC0120E0A8
:1002100030E007C08D91F901E059FF4F81832F5FD6
:100220003F4F2617B8F3862F90E023E0880F991FE1
:100230002A95E1F780937B001092790081E080930A
:100240007A0089E185BD88EB9BE099BD88BD88E98E
:100250009AE39BBD8ABD89EB9BE09DBD8CBD89B7B0
:10026000886189BF88E188BF89E08EBD80E00895FC
:1002700084E0089562E0BDDF08951F920F920FB6EB
:100280000F9211248F9389E185BD8F910F900FBE3E
:100290000F901F9018951F920F920FB60F92112476
:1002A0008F939F93EF93FF9315BCC39880917B002E
:1002B000882341F1E0917900F0E0E059FF4F81811E
:1002C00090917A00892319F088E293E202C080E7D6
:1002D00097E19BBD8ABD80917A00880F80937A0058
:1002E00080917A00882341F481E080937A008091A4
:1002F00079008F5F8093790080917B00815080939B
:100300007B0003C01EBC10927000FF91EF919F9183
:100310008F910F900FBE0F901F9018951F920F9204
:100320000FB60F9211242F933F938F939F93EF93C8
:10033000FF9322B7809186008830C0F490918500A9
:10034000E92FF0E080918700322F381BE059FF4FF2
:1003500034879F5F9093850080918500877080939C
:100360008500809186008F5F8093860020938700B0
:10037000FF91EF919F918F913F912F910F900FBE21
:100380000F901F901895DC0180919D00882311F437
:1003900085E00895E0919B00EF5FE0939B00E150C2
:1003A000F0E0EE0FFF1FED56FF4F808191818D939E
:1003B0009C9380919B00843010F010929B00809160
:1003C0009D00815080939D0080E00895DC01809124
:1003D0009D00843010F082E00895E0919C00EF5F72
:1003E000E0939C00E150F0E0EE0FFF1FED56FF4F51
:1003F0008D919C919183808380919C00843010F03A
:1004000010929C0080919D008F5F80939D0080E002
:1004100008950F931F9302E011E077C0F894809144
:100420008400E82FF0E0E059FF4F94858F5F8093C0
:10043000840080918400877080938400809186007E
:10044000815080938600789480919200813089F069
:10045000813020F0823009F058C012C09B50933098
:1004600008F053C0109290001092880010929100F2
:100470001AC09250933008F046C00093920045C0D5
:10048000892F8550833020F41093920081E00EC0B4
:10049000892F8250833020F41093920080E006C0B0
:1004A0009B50933080F5109392002FC0E091900004
:1004B000F0E0E059FF4F208D3091910090E002C0B4
:1004C000880F991F3A95E2F7282B208F8091910091
:1004D0008F5F80939100809191008830B0F01092EE
:1004E0009100809190008F5F80939000E091900048
:1004F000F0E0E059FF4F108E80919000823028F09C
:1005000088E890E063DF1092920080918600882353
:1005100009F084CF1F910F91089510929F001092BF
:100520009E0012BE81E088BF85E083BF089522B798
:1005300080919E00281B49F080919E0090919F0021
:10054000019690939F0080939E00822F0895F894C7
:02055000FFCFDB
:00000001FF
